:100000000EC01EC01DC01CC01BC01AC019C018C025
:1000100017C016C03F065B4F666D7D077F6F1124CA
:100020001FBECFE9CDBF10E0A0E6B0E0E2EFF3E005
:1000300002C005900D92A236B107D9F7DFD0D7C123
:10004000DFCF8F929F92AF92BF92CF92DF92EF92CB
:10005000FF92813011F482E001C083E087B93E98BD
:10006000379A369A3699FECF64B185B170E0782B15
:10007000882777FD8095982F28EE33E040E050E008
:100080002CD149015A01D501C4012AE0B695A795A2
:10009000979587952A95D1F765E070E0F8D0FF90A5
:1000A000EF90DF90CF90BF90AF909F908F9008958A
:1000B000C09AC19AC895C895C0980895C198C89526
:1000C000C895C098C895C895C19AC895C895C09A52
:1000D000089598E0C198C895C89580FF02C0C09A5D
:1000E00001C0C098C19AC895C8958695915091F75E
:1000F000C198B898C09AC895C89581E0B09902C0D7
:1001000080E002C0B89AC098C895C895C19AC895B1
:10011000C895C198C895C895B89A0895CF9381118C
:1001200002C0C0E001C0C8E0683008F067E0C62B3C
:10013000C0936100BDDF8C2F8068CBDFCF91BECF35
:1001400027E037E14BE64A95F1F73A95E1F72A9532
:10015000D1F70000089597B3936097BB98B39C7F45
:1001600098BBDCCF609161006770D8CF682F677053
:10017000809161008870D2CF1F93CF93DF931F923D
:10018000CDB7DD27182F698393DF84E4A2DF96DFE4
:100190008FDF812F8370806C9CDF6981862F99DFD0
:1001A0000F90DF91CF911F9189CF6A3030F4E62F05
:1001B000F0E0EC5EFF4F649101C060E0813031F40B
:1001C000909160009078692B60936000D5CF9091FA
:1001D0006000882311F0906801C09F7790936000C1
:1001E0006091600081E0C8CFCF93C0E060E08C2FC9
:1001F000C3DFCF5FC430D1F7CF91089565E081E0D0
:10020000AADFBC98BB9834E6C32ED12C4AE0E42E7A
:10021000F12C20E1B22EC0E0D0E000E010E081E05F
:1002200010DF080F191F80E00CDFC80FD91FBA9428
:10023000B110F5CF84E0159507958A95E1F794E024
:10024000D595C7959A95E1F7C017D10744F4C80131
:100250008C1B9D0BEC0163E683E08EDF05C060E440
:1002600083E08ADFC01BD10BCE01B60121D08C0107
:1002700080E09BDFC801B7011BD081E096DFCE0193
:10028000B70116D0682F82E090DF5ADFC2CF00247A
:10029000552704C0080E591F880F991F009729F091
:1002A00076956795B8F37105B9F7802D952F089568
:1002B00097FB072E16F4009406D077FD08D055D092
:1002C00007FC05D03EF4909581959F4F0895709559
:1002D00061957F4F089568940010E894A0E0B0E025
:1002E000E3E7F1E01DC0EFEFE7F959016A015E2392
:1002F000550FEE08FE2C87019B01AC019E23990F40
:10030000660B762FCB0145D0CDB7DD27EAE01FC0C5
:100310002F923F924F925F926F927F928F929F9215
:10032000AF92BF92CF92DF92EF92FF920F931F9303
:10033000CF93DF93CDB7CA1BCDBFDD2709942A88A1
:10034000398848885F846E847D848C849B84AA84E9
:10035000B984C884DF80EE80FD800C811B81AA8176
:10036000D981CE0FCDBFCA2F0895AA1BBB1B51E167
:1003700007C0AA1FBB1FA617B70710F0A61BB70B15
:10038000881F991F5A95A9F780959095BC01CD01BA
:100390000895DF93CF939F92A0E49A2E0024D0017A
:1003A000E001F00116950795F794E794D794C79468
:1003B000B794A79448F41068A20FB31FC41FD51FA9
:1003C000E61FF71F081E191E220F331F441F551F5B
:1003D000661F771F881F991F9A9421F79D01AE0110
:1003E000BF01C00111249F90CF91DF910895F8942F
:0203F000FFCF3D
:0203F200FF0FFB
:00000001FF
